:020000040800F2
:1000000078060020C10200081D1800081518000815
:1000100019180008CD030008DD1C0008D3020008F1
:100020000000000000000000000000007D1A000831
:10003000D1030008000000008D180008D51A000840
:10004000DD020008DD020008DD020008DD02000814
:10005000DD020008DD020008DD020008DD02000804
:10006000DD020008DD020008DD020008DD020008F4
:10007000DD020008DD020008DD020008DD020008E4
:10008000DD020008DD020008DD020008DD020008D4
:10009000DD020008DD020008DD020008DD020008C4
:1000A000DD020008DD020008DD020008DD020008B4
:1000B000DD020008DD020008DD020008DD020008A4
:1000C000DD020008DD020008DD020008DD02000894
:1000D000DD020008DD020008DD020008DD02000884
:1000E000DD020008DD020008DD020008DD02000874
:1000F000DD020008DD020008DD020008DD02000864
:10010000DD020008DD020008DD020008DD02000853
:10011000DD020008DD020008DD020008DD02000843
:10012000DD020008DD020008DD020008DD02000833
:10013000DD020008DD020008DD020008DD02000823
:10014000DD020008DD020008DD020008DD02000813
:10015000DD020008DD020008DD020008DD02000803
:10016000DD020008DD020008DD020008DD020008F3
:10017000DD02000800000000DD02000800000000B1
:10018000DD020008DD020008DD020008DD020008D3
:10019000DD020008DD020008DD020008DD020008C3
:1001A000DD020008DD020008DD020008DD020008B3
:1001B000DD02000800000000DD020008DD0200088A
:1001C000DD02000800000000DD020008DD0200087A
:1001D000DD020008DD020008DD020008DD02000883
:1001E000DD020008DD020008DD020008DD02000873
:1001F0000000000000F002F800F052F814A696E8A3
:10020000000CB244B344DA4501D100F049F8BAE831
:100210000F000FA696E83000A5EB040504EB0607D7
:10022000AAEB0704A7F101074FEA15154FEA3414AA
:10023000A4F10104AC4201D300F032F813F0010F35
:1002400018BFFB1A43F0010300F001F8DBE7184781
:10025000FC1B00001C1C0000103A24BF78C878C1A9
:10026000FAD8520724BF30C830C144BF04680C60BC
:10027000704700007047000000230024002500267E
:10028000103A28BF78C1FBD8520728BF30C148BFF9
:100290000B6070471FB501F0A3FD1FBD10B510BD69
:1002A00000F05AF81146FFF7F5FF01F061FD00F08C
:1002B00078F803B4FFF7F2FF03BC00F07FF800000A
:1002C0000A4880470A480047FEE7FEE7FEE7FEE7E8
:1002D000FEE7FEE7FEE7FEE7FEE7FEE7FEE70000DB
:1002E00004480549054A064B70470000C91C000830
:1002F000F501000878000020780600207802002030
:10030000780200204FF0000200B51346944696464E
:10031000203922BFA0E80C50A0E80C50B1F1200118
:10032000BFF4F7AF090728BFA0E80C5048BF0CC0C6
:100330005DF804EB890028BF40F8042B08BF704724
:1003400048BF20F8022B11F0804F18BF00F8012B96
:100350007047704770477047754600F02BF8AE46FF
:1003600005006946534620F00700854618B020B5C1
:10037000FFF7B6FFBDE820404FF000064FF0000742
:100380004FF000084FF0000BAC46ACE8C009ACE8F9
:10039000C009ACE8C009ACE8C00921F007018D46EE
:1003A000704710B50446AFF300802046BDE810400A
:1003B000FFF77FBF00487047100000200149182058
:1003C000ABBEFEE72600020070470000FFE7FEE735
:1003D0007047000081B0EFF3108072B60090FFE725
:1003E000FEE7000040F27000C2F2000000687047B3
:1003F00040F20400C2F20000027840F27001C2F242
:1004000000010868104408607047000080B582B0A1
:1004100000208DF80700042000F092F801F096FB10
:10042000072000F00DF820B1FFE701208DF807004C
:1004300002E000F049F8FFE79DF8070002B080BD38
:1004400080B582B0019000208DF8030040F20400D6
:10045000C2F20000007878B3FFE740F20000C2F279
:100460000000006840F20401C2F200010A784FF473
:100470007A71B1FBF2F1B0FBF1F001F0C3F9B0B960
:10048000FFE7019807280DD8FFE701994FF0FF30EB
:10049000002200F03DF8019840F20801C2F200018C
:1004A000086003E001208DF80300FFE703E001206E
:1004B0008DF80300FFE703E001208DF80300FFE75C
:1004C0009DF8030002B080BD80B582B0FFE741F225
:1004D0006000C4F20200016841F00101016000689F
:1004E00000F0010001900198FFE7FFE741F258009A
:1004F000C4F20200016841F080510160006800F020
:10050000805000900098FFE700F09EF802B080BD98
:1005100080B586B08DF817000491039201F0E0FBDE
:1005200002909DF91700019002980499039A01F036
:1005300077F90146019801F0DBFB06B080BD0000B1
:1005400080B582B00190019801F0F4FB02B080BD4B
:1005500080B586B0049047F20000C4F20000006845
:1005600000F4C060029000F081F8B0F5004F04D1B3
:10057000FFE701208DF8170062E047F20C00C4F29B
:10058000000000680004002804D5FFE701208DF872
:10059000170055E002980499884204D1FFE7002033
:1005A0008DF817004CE047F20001C4F20001086822
:1005B00020F4C060049A1043086040F20000C2F2C8
:1005C00000000068400945F6C521C0F67C21A0FB6B
:1005D0000110C009322100FB01F049F69A11C1F661
:1005E0009911A0FB011001300390FFE747F21400BE
:1005F000C4F200000168002049050029019006D5D9
:10060000FFE70398002818BF01200190FFE7019839
:10061000C00720B1FFE7039801380390E6E747F2EF
:100620001400C4F2000000684005002804D5FFE76C
:1006300003208DF8170003E000208DF81700FFE776
:100640009DF8170006B080BD47F20801C4F2000112
:10065000086840F4804008607047000047F20000DE
:10066000C4F20000006800F4C060704782B047F236
:100670001000C4F20000006800909DF80100C00660
:10068000002804D5FFE74FF4805001900DE09DF85D
:1006900001000006002804D4FFE74FF40040019059
:1006A00002E000200190FFE7FFE7019802B07047E9
:1006B00080B586B00490039100200090049820B982
:1006C000FFE701208DF817008CE1039842F200014A
:1006D000C4F20201096801F00F01884216D9FFE750
:1006E00042F20000C4F20200016821F00F01039AF7
:1006F00011430160006800F00F000399884204D0A4
:10070000FFE701208DF817006CE1FFE704980078FF
:100710008007002819D5FFE70498806841F2080196
:10072000C4F20201096801F0F00188420CD9FFE728
:1007300041F20801C4F20201086820F0F000049AB6
:10074000926810430860FFE7FFE704980078C0074D
:10075000002800F0C480FFE70498406803282FD1E8
:10076000FFE741F20000C4F20200006880010028A7
:1007700004D4FFE701208DF8170033E101F088F879
:10078000019001984BF20141C0F2C441884216D356
:10079000FFE741F20800C4F20200006810F0F00F19
:1007A0000CD1FFE741F20801C4F2020108680822F7
:1007B00062F30710086080200090FFE7FFE755E034
:1007C0000498406802280ED1FFE741F20000C4F20D
:1007D000020000688003002804D4FFE701208DF8A0
:1007E0001700FFE020E00498406870B9FFE741F28D
:1007F0000000C4F2020000688007002804D4FFE76C
:1008000001208DF81700EDE00DE041F20000C4F288
:10081000020000684005002804D4FFE701208DF89D
:100820001700DFE0FFE7FFE700F0F2F80190019822
:100830004BF20141C0F2C441884216D3FFE741F2B6
:100840000800C4F20200006810F0F00F0CD1FFE7BE
:1008500041F20801C4F202010868082262F307109D
:10086000086080200090FFE7FFE7FFE741F2080102
:10087000C4F20201086820F00300049A5268104391
:100880000860FFF7AFFD0290FFE741F20800C4F2F5
:100890000200006800F00C0004994968B0EB810F79
:1008A0001CD0FFE7FFF79EFD0299401A41F2893103
:1008B000884212D3FFE741F20800C4F20200006848
:1008C00000F00C0004994968B0EB810F04D0FFE7F9
:1008D00003208DF8170085E0FFE7D6E7FFE70098D3
:1008E000802809D1FFE741F20801C4F2020108683B
:1008F00020F0F0000860FFE70498007880070028E7
:1009000019D5FFE70498806841F20801C4F202019A
:10091000096801F0F00188420CD2FFE741F20801BA
:10092000C4F20201086820F0F000049A92681043B3
:100930000860FFE7FFE7039842F20001C4F20201FA
:10094000096801F00F01884216D2FFE742F2000069
:10095000C4F20200016821F00F01039A1143016003
:10096000006800F00F000399884204D0FFE70120DF
:100970008DF8170036E0FFE704980078400700285C
:100980000CD5FFE741F20801C4F20201086820F427
:10099000E060049AD26810430860FFE7049800788A
:1009A000000700280DD5FFE741F20801C4F202015B
:1009B000086820F46050049A126940EAC200086096
:1009C000FFE700F013F840F20001C2F200010860F6
:1009D00040F20800C2F200000068FFF731FD8DF818
:1009E0001700FFE79DF8170006B080BD80B500F046
:1009F0000FF841F20801C4F202010968C9B20A09FC
:100A000041F6FA51C0F60001895CC84080BD000083
:100A100089B000200890079041F20800C4F202005B
:100A2000006800F00C00029041F20C00C4F20200D9
:100A3000006800F003000190029840B1FFE70298BF
:100A40000C282ED1FFE7019801282AD1FFE741F2B7
:100A50000000C4F2020000680007002809D4FFE784
:100A600041F29400C4F202000068C0F30320089031
:100A700008E041F20000C4F202000068C0B20009C0
:100A80000890FFE7089941F60C60C0F6000050F8A6
:100A900021000890029818B9FFE708980790FFE72F
:100AA00016E00298042806D1FFE742F20040C0F2A7
:100AB000F40007900BE00298082806D1FFE742F205
:100AC0000040C0F2F400079000E0FFE7FFE7FFE717
:100AD00002980C2860D1FFE741F20C00C4F202003A
:100AE000016801F0030105910068C1B2012000EB2B
:100AF000111003900598009001282CD0FFE7009872
:100B0000022804D0FFE70098032812D024E00399BC
:100B100042F20040C0F2F400B0FBF1F041F20C01EF
:100B2000C4F202010968C1F3062100FB01F006903E
:100B300021E0039942F20040C0F2F400B0FBF1F072
:100B400041F20C01C4F202010968C1F3062100FB65
:100B500001F006900FE0FFE708980399B0FBF1F071
:100B600041F20C01C4F202010968C1F3062100FB45
:100B700001F00690FFE741F20C00C4F202000068A9
:100B800000F0C061022000EB116004900698049907
:100B9000B0FBF1F00790FFE7079809B0704700003D
:100BA000B0B58AB00890089828B9FFE701208DF801
:100BB000270000F023BE41F20800C4F202000068E2
:100BC00000F00C00059041F20C00C4F20200006835
:100BD00000F00300049008980078C006002840F157
:100BE0003481FFE7059850B1FFE705980C2840F0E5
:100BF000AE80FFE70498012840F0A980FFE741F2AA
:100C00000000C4F2020000688007002809D5FFE751
:100C10000898C06928B9FFE701208DF8270000F087
:100C2000EDBD0898406A019041F20000C4F2020054
:100C300000680007002809D5FFE741F20000C4F270
:100C40000200006800F0F000009009E041F294001A
:100C5000C4F20200006800F4706000090090FFE731
:100C600001980099884229D9FFE70898406A00F066
:100C700089FE28B1FFE701208DF8270000F0BEBDF6
:100C8000FFE741F20001C4F20201086840F00800E9
:100C90000860086820F0F000089A526A1043086063
:100CA000FFE741F20401C4F20201086820F47F402A
:100CB000089A126A40EA022008602CE0FFE741F23D
:100CC0000001C4F20201086840F0080008600868EA
:100CD00020F0F000089A526A10430860FFE741F2E2
:100CE0000401C4F20201086820F47F40089A126AE5
:100CF00040EA02200860059860B9FFE70898406A5A
:100D000000F040FE28B1FFE701208DF8270000F039
:100D100075BDFFE7FFE7FFF769FE40F20001C2F291
:100D20000001086040F20800C2F200000068FFF70E
:100D300087FB8DF81B009DF81B0030B1FFE79DF885
:100D40001B008DF8270000F059BDFFE77CE00898F4
:100D5000C06900284AD0FFE741F20001C4F2020155
:100D6000086840F001000860FFF73CFB0790FFE7D0
:100D700041F20000C4F2020000688007002817D486
:100D8000FFE7FFF72FFB0799401A03280FD3FFE770
:100D900041F20000C4F2020000688007002805D478
:100DA000FFE703208DF8270000F028BDFFE7DFE70D
:100DB000FFE741F20001C4F20201086840F00800B8
:100DC0000860086820F0F000089A526A1043086032
:100DD000FFE741F20401C4F20201086820F47F40F9
:100DE000089A126A40EA022008602CE041F20001F1
:100DF000C4F20201086820F001000860FFF7F2FA6F
:100E00000790FFE741F20000C4F20200006880078B
:100E1000002817D5FFE7FFF7E5FA0799401A0328DE
:100E20000FD3FFE741F20000C4F202000068800720
:100E3000002805D5FFE703208DF8270000F0DEBC71
:100E4000FFE7DFE7FFE7FFE7FFE708980078C00765
:100E5000002800F0A280FFE70598082808D0FFE7E7
:100E600005980C2817D1FFE70498032813D1FFE752
:100E700041F20000C4F2020000688003002809D596
:100E8000FFE70898406828B9FFE701208DF82700A0
:100E900000F0B4BC80E0FFE708984068B0F5803F00
:100EA00009D1FFE741F20001C4F20201086840F4F1
:100EB0008030086020E008984068B0F5A02F0DD180
:100EC000FFE741F20001C4F20201086840F480200B
:100ED0000860086840F4803008600CE041F20001CE
:100EE000C4F20201086820F480300860086820F429
:100EF00080200860FFE7FFE7FFE70898406828B315
:100F0000FFE7FFF76FFA0790FFE741F20000C4F236
:100F1000020000688003002817D4FFE7FFF762FA99
:100F20000799401A65280FD3FFE741F20000C4F289
:100F3000020000688003002805D4FFE703208DF835
:100F4000270000F05BBCFFE7DFE724E0FFF74AFA89
:100F50000790FFE741F20000C4F20200006880033E
:100F6000002817D5FFE7FFF73DFA0799401A6528D3
:100F70000FD3FFE741F20000C4F2020000688003D3
:100F8000002805D5FFE703208DF8270000F036BCC8
:100F9000FFE7DFE7FFE7FFE7FFE708980078800754
:100FA000002840F19780FFE70598042808D0FFE764
:100FB00005980C2824D1FFE70498022820D1FFE7E8
:100FC00041F20000C4F2020000684005002809D583
:100FD000FFE70898C06828B9FFE701208DF82700CF
:100FE00000F00CBC41F20401C4F20201086820F0D8
:100FF000FE40089A126940EA02600860FFE768E074
:101000000898C068C0B3FFE741F20001C4F20201D2
:10101000086840F480700860FFF7E4F90790FFE784
:1010200041F20000C4F2020000684005002816D416
:10103000FFE7FFF7D7F90799401A03280ED3FFE718
:1010400041F20000C4F2020000684005002804D408
:10105000FFE703208DF82700D0E3FFE7E0E741F248
:101060000401C4F20201086820F0FE40089A1269E7
:1010700040EA026008602BE041F20001C4F2020184
:10108000086820F480700860FFF7ACF90790FFE76C
:1010900041F20000C4F2020000684005002816D5A5
:1010A000FFE7FFF79FF90799401A03280ED3FFE7E0
:1010B00041F20000C4F2020000684005002804D597
:1010C000FFE703208DF8270098E3FFE7E0E7FFE75D
:1010D000FFE7FFE7089800780007002874D5FFE7CE
:1010E00008984069002842D0FFE70898806948B90D
:1010F000FFE741F29401C4F20201086820F01000F9
:10110000086008E041F29401C4F20201086840F06E
:1011100010000860FFE741F29401C4F20201086880
:1011200040F001000860FFF75DF90790FFE741F22A
:101130009400C4F2020000688007002816D4FFE77C
:10114000FFF750F90799401A08280ED3FFE741F23C
:101150009400C4F2020000688007002804D4FFE76E
:1011600003208DF8270049E3FFE7E0E72BE041F299
:101170009401C4F20201086820F001000860FFF742
:1011800031F90790FFE741F29400C4F202000068D1
:101190008007002816D5FFE7FFF724F90799401AC2
:1011A00008280ED3FFE741F29400C4F20200006861
:1011B0008007002804D5FFE703208DF827001DE3F2
:1011C000FFE7E0E7FFE7FFE708980078400700281F
:1011D00040F17581FFE700208DF80F0041F25800C3
:1011E000C4F202000068C000002813D4FFE7FFE744
:1011F00041F25800C4F20200016841F080510160E0
:10120000006800F0805002900298FFE701208DF8FE
:101210000F00FFE747F20000C4F200000068C005BD
:1012200000282CD4FFE747F20001C4F2000108684F
:1012300040F480700860FFF7D5F80790FFE747F2A9
:101240000000C4F200000068C005002816D4FFE7C3
:10125000FFF7C8F80799401A03280ED3FFE747F2B3
:101260000000C4F200000068C005002804D4FFE7B5
:1012700003208DF82700C1E2FFE7E0E7FFE70898C9
:10128000007AC007E8B1FFE70898007A4007002815
:101290000DD5FFE741F29001C4F20201086840F069
:1012A00004000860086840F00100086008E041F2AE
:1012B0009001C4F20201086840F001000860FFE7F5
:1012C0000CE041F29001C4F20201086820F0010034
:1012D0000860086820F004000860FFE7089880684C
:1012E000002800F08380FFE7FFF77CF80790FFE716
:1012F00041F29000C4F2020000688007002818D470
:10130000FFE7FFF76FF80799401A41F289318842E9
:101310000ED3FFE741F29000C4F20200006880079C
:10132000002804D4FFE703208DF8270066E2FFE7DA
:10133000DEE70898007A000600282BD5FFE741F287
:101340009001C4F20201086840F080000860FFE7E5
:1013500041F29000C4F2020000680005002818D491
:10136000FFE7FFF73FF80799401A41F289318842B9
:101370000ED3FFE741F29000C4F2020000680005BE
:10138000002804D4FFE703208DF8270036E2FFE7AA
:10139000DEE72AE041F29001C4F20201086820F081
:1013A00080000860FFE741F29000C4F2020000688C
:1013B0000005002818D5FFE7FFF714F80799401A31
:1013C00041F2893188420ED3FFE741F29000C4F226
:1013D000020000680005002804D5FFE703208DF80F
:1013E00027000BE2FFE7DEE7FFE759E0FEF7FAFF31
:1013F0000790FFE741F29000C4F202000068800706
:10140000002818D5FFE7FEF7EDFF0799401A41F2D3
:10141000893188420ED3FFE741F29000C4F2020006
:1014200000688007002804D5FFE703208DF8270017
:10143000E4E1FFE7DEE741F29000C4F20200006859
:10144000000600282BD5FFE741F29001C4F202010B
:10145000086820F080000860FFE741F29000C4F2C5
:10146000020000680005002818D5FFE7FEF7BAFF64
:101470000799401A41F2893188420ED3FFE741F2C1
:101480009000C4F2020000680005002804D5FFE7C0
:1014900003208DF82700B1E1FFE7DEE7FFE7FFE774
:1014A0009DF80F00012809D1FFE741F25801C4F26D
:1014B0000201086820F080500860FFE7FFE7089805
:1014C0000078800600285DD5FFE70898806A60B341
:1014D000FFE741F29801C4F20201086840F0010000
:1014E0000860FEF77FFF0790FFE741F29800C4F223
:1014F000020000688007002816D4FFE7FEF772FF9D
:101500000799401A03280ED3FFE741F29800C4F26E
:10151000020000688007002804D4FFE703208DF84C
:1015200027006BE1FFE7E0E72BE041F29801C4F20E
:101530000201086820F001000860FEF753FF0790E1
:10154000FFE741F29800C4F202000068800700281B
:1015500016D5FFE7FEF746FF0799401A03280ED37A
:10156000FFE741F29800C4F20200006880070028FB
:1015700004D5FFE703208DF827003FE1FFE7E0E710
:10158000FFE7FFE70898C06A002800F03381FFE713
:1015900041F20800C4F20200006800F00C000C28C0
:1015A00000F0CF80FFE70898C06A022840F09180E1
:1015B000FFE741F20001C4F20201086820F08070E8
:1015C0000860FEF70FFF0790FFE741F20000C4F24A
:1015D000020000688001002816D5FFE7FEF702FF31
:1015E0000799401A03280ED3FFE741F20000C4F226
:1015F000020000688001002804D5FFE703208DF871
:101600002700FBE0FFE7E0E741F20C01C4F2020132
:10161000086848F20C02C0F29F121040DDF820C0AA
:10162000DCF83020DCF83450DCF838E0DCF83C3012
:101630006FF00F0404EB0514224342EA0E22DCF89B
:10164000404040F2000ECFF6E07E0EEA045EAEF5BA
:10165000001E42EA0E02DCF844E04FF07E4C0CEA39
:101660000E6C0CF17E4C42EA0C0242EAC36210435B
:10167000086041F20002C4F20202106840F080707B
:101680001060086840F080700860FEF7ABFE0790BD
:10169000FFE741F20000C4F2020000688001002868
:1016A00016D4FFE7FEF79EFE0799401A03280ED3D3
:1016B000FFE741F20000C4F2020000688001002848
:1016C00004D4FFE703208DF8270097E0FFE7E0E769
:1016D00036E041F20001C4F20201086820F0807097
:1016E0000860FEF77FFE0790FFE741F20000C4F2BA
:1016F000020000688001002816D5FFE7FEF772FEA1
:101700000799401A03280ED3FFE741F20000C4F204
:10171000020000688001002804D5FFE703208DF84F
:1017200027006BE0FFE7E0E741F20C01C4F20201A1
:1017300008684FF6FC72CFF6EE6210400860FFE7D3
:1017400057E00898C06A012804D1FFE701208DF80E
:10175000270053E041F20C00C4F20200006804903C
:10176000049800F003000899096B88423BD1FFE719
:10177000049800F0F00008994A6B6FF00F0101EB3C
:10178000021188422FD1FFE7049800F4FE40089927
:10179000896BB0EB012F26D1FFE7049800F0784069
:1017A0000899C96BB0EBC16F1DD1FFE7049800F435
:1017B000C00008990A6C0021CFF6E07101EA0251DD
:1017C000A1F5001188420ED1FFE7049800F0C06037
:1017D00008994A6C4FF07E4101EA026101F17E41B5
:1017E000884204D0FFE701208DF8270006E0FFE7DC
:1017F000FFE7FFE700208DF82700FFE79DF82700AF
:101800000AB0B0BD80B582B00190019800F038F9FF
:1018100002B080BDFFE7FEE7FFE7FEE7FFE7FEE778
:1018200088B0079006910592079800F00700049091
:101830000498C0F10700042803D3FFE703200190B8
:1018400004E00498C0F107000190FFE701980390BD
:1018500004980330062803D8FFE70020009003E037
:10186000049804380090FFE70098029006980399C6
:10187000012202FA01F101390840029B98400599C2
:101880009A40013A1140084308B070477047000081
:1018900087B041F20C00C4F20200016801F00301BC
:1018A00004910068C1B2012000EB1110029004986D
:1018B000009001282CD0FFE70098022804D0FFE711
:1018C0000098032812D047E0029942F20040C0F28B
:1018D000F400B0FBF1F041F20C01C4F2020109681E
:1018E000C1F3062100FB01F0059038E0029942F2B5
:1018F0000040C0F2F400B0FBF1F041F20C01C4F280
:1019000002010968C1F3062100FB01F0059026E001
:1019100041F20000C4F2020000680007002809D468
:10192000FFE741F29400C4F202000068C0F3032014
:10193000069008E041F20000C4F202000068C0B264
:1019400000090690FFE7069941F60C60C0F600001A
:1019500050F82100059002E000200590FFE741F2D9
:101960000C00C4F20200006800F0C061022000EB2D
:101970001160039005980399B0FBF1F00190019874
:1019800007B0704780B586B004900020039041F204
:101990005800C4F202000068C000002804D5FFE728
:1019A000FEF75CFE02901AE0FFE741F25800C4F235
:1019B0000200016841F080510160006800F0805031
:1019C00001900198FFE7FEF749FE029041F25801AD
:1019D000C4F20201086820F080500860FFE7029816
:1019E00028B1FFE70298B0F5007F10D1FFE7049817
:1019F00081280BD3FFE70498A12803D3FFE7022037
:101A0000039002E001200390FFE7FFE718E004984D
:101A1000812803D3FFE70320039010E00498802877
:101A200003D1FFE70220039008E00498702803D157
:101A3000FFE70120039000E0FFE7FFE7FFE7FFE794
:101A400042F20000C4F20200016821F00F01039A83
:101A500011430160006800F00F000399884204D030
:101A6000FFE701208DF8170003E000208DF8170034
:101A7000FFE79DF8170006B080BD0000704700002A
:101A800080B584B0029002980138B0F1807F03D312
:101A9000FFE7012003901AE0029801384EF214018A
:101AA000CEF2000108604FF0FF300721019100F0F5
:101AB0001FF901994EF21802CEF2000200201060C8
:101AC0004EF21002CEF2000211600390FFE703987D
:101AD00004B080BD80B5FEF78BFC80BD80B598B0AA
:101AE00006A84821FEF70EFC002005900490039004
:101AF000029001904FF48060FEF72AFD18B1FFE7D5
:101B0000FEF768FCFFE71020069001200D900020F2
:101B10000E9060210F91119006A8FFF741F818B1BF
:101B2000FFE7FEF757FCFFE70F200190002102912D
:101B300003910491059101A8FEF7BAFD18B1FFE7E2
:101B4000FEF748FCFFE718B080BD000088B041F206
:101B50000000C4F2020000680007002809D4FFE773
:101B600041F29400C4F202000068C0F30320069022
:101B700008E041F20000C4F202000068C0B20009AF
:101B80000690FFE7069941F60C60C0F6000050F899
:101B90002100069041F20800C4F20200006800F043
:101BA0000C00014601910C2800F270800199DFE8D9
:101BB00001F0076D6D6D0E6D6D6D186D6D6D220010
:101BC000069840F20001C2F20001086065E040F2B0
:101BD0000001C2F2000142F20040C0F2F4000860CD
:101BE0005BE040F20001C2F2000142F20040C0F2AC
:101BF000F400086051E041F20C00C4F202000168F8
:101C000001F0030104910068C1B2012000EB111042
:101C1000039004980090022804D0FFE7009803285E
:101C200009D011E0039942F20040C0F2F400B0FB89
:101C3000F1F005900EE0039942F20040C0F2F4008A
:101C4000B0FBF1F0059005E006980399B0FBF1F0C8
:101C50000590FFE7059941F20C00C4F2020002680A
:101C6000C2F3062201FB02F10591006800F0C06199
:101C7000022000EB1160029005980299B0FBF1F090
:101C800040F20001C2F20001086006E0069840F24E
:101C90000001C2F200010860FFE741F20800C4F24F
:101CA00002000068C0B2010941F6FA50C0F6000017
:101CB000405C0790079A40F20001C2F200010868F8
:101CC000D040086008B070474EF68851CEF200014F
:101CD000086840F47000086070470000FFE7FEE706
:101CE0004EF60C50CEF200000068C0F302207047A0
:101CF00082B08DF8070000919DF9070000280AD4F2
:101D0000FFE7009840019DF907104EF20042CEF225
:101D1000000288540BE0009840019DF8071001F084
:101D20000F014EF61452CEF200028854FFE702B0C3
:101D30007047000083B00290029800F00700009006
:101D40004EF60C51CEF200010868019001984FF652
:101D5000FF02104001900198009A40EA0220002200
:101D6000C0F2FA52104301900198086003B0704726
:101D700080B58CB0002000900B90FEF747FB0098D8
:101D80008DF8280046F67240C2F26410099042F2C3
:101D90006F00C6F67770089046F24850C6F66C4061
:101DA0000790FFF79BFE07A802A9019100F006F833
:101DB000019800F00AF8FFE7FEE700000278401CF7
:101DC0000A70491C002AF9D170470178602903D9AB
:101DD0007A2901D820390170401C0029F5D17047BB
:101DE000F1EE100A4FF6FF71C0F2C03120EA010097
:101DF00040F04070E1EE100A704700000000000063
:101E0000000001020304060708090000A086010083
:101E1000400D0300801A060000350C0040420F0000
:101E200080841E0000093D0000127A000024F400A6
:101E300000366E010048E801006CDC020000000082
:101E4000000000000000000000000000701E0008FC
:101E5000000000201000000058020008801E00084A
:101E60001000002068060000780200080000000052
:101E700000093D0001000000080000000000000013
:04000005080001F5F9
:00000001FF
