:020000040800F2
:1000000068470020090200081102000813020008D6
:100010001502000817020008190200081B02000858
:100020000000000000000000000000005114000863
:100030001F0200080000000061130008751400088A
:1000400025020008250200082502000825020008F4
:1000500025020008250200082502000825020008E4
:1000600025020008250200082502000825020008D4
:1000700025020008250200082502000825020008C4
:1000800025020008250200082502000825020008B4
:1000900025020008250200082502000825020008A4
:1000A0002502000825020008250200082502000894
:1000B0002502000825020008250200082502000884
:1000C0002502000825020008250200082502000874
:1000D0002502000825020008250200082502000864
:1000E0002502000825020008250200082502000854
:1000F0002502000825020008250200082502000844
:1001000025020008951500082502000825020008B0
:100110002502000825020008250200082502000823
:100120002502000825020008250200082502000813
:100130002502000825020008250200082502000803
:1001400025020008250200082502000825020008F3
:1001500025020008250200082502000825020008E3
:1001600025020008250200082502000825020008D3
:100170002502000800000000250200080000000021
:1001800025020008250200082502000825020008B3
:1001900025020008250200082502000825020008A3
:1001A0002502000825020008250200082502000893
:1001B00025020008000000002502000825020008B2
:1001C00025020008000000002502000825020008A2
:1001D0002502000825020008250200082502000863
:1001E0002502000825020008250200082502000853
:1001F00000000000DFF80CD000F03EF80048004797
:1002000071160008684700200748804707480047E4
:10021000FEE7FEE7FEE7FEE7FEE7FEE7FEE7FEE7B6
:10022000FEE7FEE7FEE7000085150008F50100087F
:1002300040EA01039B0703D009E008C9121F08C068
:10024000042AFAD203E011F8013B00F8013B521EE8
:10025000F9D27047D2B201E000F8012B491EFBD25F
:1002600070470022F6E710B513460A4604461946C1
:10027000FFF7F0FF204610BD1CB509480090094863
:1002800001900546009C06E0E06840F0010394E818
:10029000070098471034AC42F6D3FFF7AFFF0000D9
:1002A000EC2B00080C2C0008B0B586B01A490128C8
:1002B00008D078B90A6842F004020A60096801F0BF
:1002C00004010EE00A6842F002020A60096801F0C7
:1002D000020106E00A6842F001020A60096801F0C2
:1002E000010101910199032104910121CDE902113C
:1002F000194931F81040174951F82050019401A9CB
:10030000284600F02BF828462146002200F0ECF8A1
:10031000002006B0B0BD00BF4C10024080B50D49B2
:1003200051F820200C4931F810101046002200F03E
:10033000DBF8002080BD00BF80B5064951F82020C1
:10034000054931F810101046012200F0CDF80020C8
:1003500080BD00BF882B0008802B00082DE9F04FDE
:1003600085B05E4A07244FF0010A4FF0000B90421F
:100370005B4A08BF062402444FEAB223062B38BF6B
:100380004FEAB22400F12002CDE90140049100922D
:100390000020002400220E6836FA0BF504BF05B0D9
:1003A000BDE8F08F0AFA0BF916EA090E00F08F800B
:1003B000D1F804C00323039203FA00F50CF00308FC
:1003C000EE43A8F10105012D14D8029A9568D1F8E1
:1003D0000CA035400AFA00F74FF0010A3D43956042
:1003E000CCF30015576805FA0BF527EA09073D43DA
:1003F000556006E0B8F1030F029A02D14FF00308EE
:1004000023E0D56804998F68354087403D43B8F1B3
:10041000020FD56019D104F01C050F23A046009CE3
:1004200003FA05FC6FF0030303EA5B03E758049942
:1004300027EA0C0C0F6907FA05F545EA0C05E550AB
:100440004446D1F804C00CF00308156808FA00F31C
:1004500035402B4313601CF4403FDDE9032136D0C7
:100460002BF003071F4EA44602F018030F24374455
:1004700004FA03F53C6EAC43019D05FA03F32343F4
:100480003B6633684D6843EA0E04EF0258BF23EA27
:100490000E043460AF02736843EA0E0458BF23EAC7
:1004A0000E047460AF03D6F8843043EA0E0458BFDC
:1004B00023EA0E04C6F88440ED03D6F8803043EA00
:1004C0000E0458BF23EA0E04C6F88040644602308A
:1004D000043408320BF1010B5DE700BF0018024243
:1004E0000000FEBD00F402401823002A08BF2823A4
:1004F000C150704711480068704700BF09490A6839
:10050000D2071CBF012070470A6822F00402104382
:1005100000F09BBE0348016841F00101016000202A
:10052000704700BF000403400348044900780A688C
:1005300010440860704700BF000000206C260020B7
:1005400080B5042000F09CF800F0D6FF002000F0F9
:1005500007F808B1012080BD00F03CF8002080BD04
:10056000B0B586B0014631200022002400F062F8C8
:10057000312000F04FF82648016841F01001016079
:100580006946006800F010000190019801A800F091
:10059000AFF900F0D9F90E4D0B490C4B40F2E732A0
:1005A000B0FBF5F0C1E902420C610138C1E900304D
:1005B000084600F022FD08B1012002E0024800F0E8
:1005C0002DFD06B0B0BD00BF180100200010004096
:1005D00040420F00E0B50E480022816841F0010161
:1005E0008160816801F0010101910199016841F088
:1005F000805101600721006800F080500090009851
:100600006FF0010000F016F8BDE88C4000F076B8FD
:1006100058100240002809D41C21012201EAD0010F
:1006200000F01F0002FA00F0014A8850704700BF36
:1006300000E100E0F0B5184B4FF0FF361C68C4F342
:100640000224251F84F0070438BF002506FA05F7A9
:10065000BA43032C28BF032406FA04F4A14300F094
:100660000F04A940043C1143044A234449010244B5
:10067000002848BF03F10C021170F0BD00E400E057
:1006800005494FF6FF030A681A4060F30A2203483F
:1006900010430860704700BF0CED00E00000FA0551
:1006A0001C490A680B6913F4104F22D0CB681B0455
:1006B0001FD402F4C062824204BF002070470A685F
:1006C00022F4C06210430C4A086087480068B0FBFF
:1006D000F2F000EB8000C0434A69520503D5421C8A
:1006E00000281046F8D148690321400501EAE0706E
:1006F00070470120704700BFA0860100014800F04C
:100700009FBD00BF087000400248006800F4C06050
:10071000704700BF007000402DE9F047002800F04E
:10072000D580814B04468946186800F00F00884246
:100730000BD2186820F00F0040EA09001860186812
:1007400000F00F00484540F0C1802068844F8107C9
:100750000AD5A1683A6802F0F002914281BF3A6876
:1007600022F0F00211433960C00776D0616857F873
:10077000080CF1B1022919D003291DD1800140F1E3
:10078000A5807868796800F0030001281BD0C1F3C8
:1007900003110131032818BF022829D19748B0FB63
:1007A000F1F07968C1F30621484322E0800306D4C2
:1007B0008CE0800703D489E0400540F187809A46A9
:1007C00000F0D2F81EE057F8080C6FF0070110F0A7
:1007D00008004FF0040008BF082008BF8C2179589A
:1007E00021FA00F0864900F00F0051F8200000E0E7
:1007F0000020796802229A46C1F3416102EB41016F
:10080000B0FBF1F03749884203D9386810F0F00F97
:100810005FD04FF000086068396821F00301084399
:100820003860FFF767FE064641F2893500F056FD55
:100830000BD0FFF75FFE801BA842F7D300F04EFD00
:100840001CBF0320BDE8F087F0E7B8F1000F1EBF22
:10085000386820F0F00038605346206881070AD5D8
:10086000A1683A6802F0F00291423FBF3A6822F074
:10087000F00211433960196801F00F0149450AD9A6
:10088000196821F00F0141EA09011960196801F0A6
:100890000F0149451AD1410705D5E1683A6822F4AC
:1008A000E06211433960000706D52069396821F4F8
:1008B000605141EAC000386000F038F80A49086029
:1008C0000A480068BDE8F047FFF74ABE0120BDE8CE
:1008D000F087386808214FF0010861F3071038608D
:1008E00099E700BF00B4C404080000200400002001
:1008F0000F2202601A4A136803F00303436013686F
:1009000003F0F0038360136803F4E063C3604FF403
:10091000E063126803EAD20202610348006800F053
:100920000F000860704700BF0020024080B500F053
:100930001BF80B49034A0968C1F30311515CC84015
:1009400080BD00BF1E2B000880B5FFF7EFFF0449F4
:10095000044A0968C1F30221515CC84080BD00BF50
:10096000081002402E2B000810B523488168C36888
:1009700011F00C0201460BD00C2A04BF03F0030354
:10098000012B05D0042A1D4818BF082A30D110BDFC
:100990000B4653F8944B14F0080408BF18464FF068
:1009A0000403006808BF0823D840154B00F00F006F
:1009B000002A53F82030184618BF00200C2AE6D130
:1009C000C86880070D4858BF1846CA68C2F30312AA
:1009D0000132B0FBF2F0CA68C968C2F30622C1F363
:1009E00041615043022202EB4101B0FBF1F010BD26
:1009F00000200023E2E700BF001002400024F400C2
:100A0000942B000838B32DE9FC41D84E0446B06859
:100A100000F00C07F06800F003082078C0061CD432
:100A20002078C00759D0082F50D00C2F08BFB8F13C
:100A3000030F4BD030686168B1F5803F07D0B1F546
:100A4000A02F40F0978140F480203060306840F45F
:100A50008030306098E101207047DFB10C2F08BF73
:100A6000B8F1010F16D03068E169002900F051811A
:100A700040F0010000F022FC05463068800700F1DC
:100A80004581FFF737FD401B0328F6D33068800708
:100A9000F3D405E23068800703D5E069002800F050
:100AA000E481606A316809075ABFD6F894100909D1
:100AB000316801F0F001884240F2B58000F082FC1C
:100AC000002840F0D28100F0A9FBBFE0306880032D
:100AD00003D56068002800F0C881207880072CD5F5
:100AE000042F1CD00C2F08BFB8F1020F17D03068AC
:100AF000E168002900F05A8140F4807000F0DEFBCC
:100B000005463068400511D4FFF7F4FC401B03286C
:100B1000F7D3306840054FF00300F2D4A3E030680B
:100B2000400503D5E068002800F09F8120697168C6
:100B300021F0FE4141EA006070602078000727D470
:100B40002078400740F15281B06D5FEAC00808D4B8
:100B5000B06D40F08050B065B06D00F080500190F5
:100B60000198834F3868C00536D4386840F48070E7
:100B70003860FFF7BFFC05463868C0052CD4FFF786
:100B8000B9FC401B0328F7D33868C005F4D487E1CB
:100B90006069002869D0A069D6F89410002821F077
:100BA000100118BF1031C6F89410D6F8940040F028
:100BB0000100C6F89400FFF79DFC0546D6F89400A6
:100BC0008007BDD4FFF796FC401B0828F6D3D6F863
:100BD00094008007F2D463E1A068C1075DD1D6F824
:100BE0009010002821F00101C6F89010D6F890105E
:100BF00021F00401C6F890105DD1FFF77BFC05469B
:100C000041F28937D6F89000800740F1E380FFF782
:100C100071FC401BB842F5D3D6F8900080074FF026
:100C20000300EFD51FE0316841F008013160316801
:100C300021F0F00101433160002F216A726822F433
:100C40007F4242EA0121716000F08A80FFF76EFE68
:100C5000DFF828190860DFF88C030068FFF780FCD4
:100C600000283FF4DDAEBDE8FC81D6F8940020F00A
:100C70000100C6F89400FFF73DFC0546D6F8940045
:100C800080077FF55DAFFFF735FC401B0828F5D3E3
:100C9000D6F894008007F1D502E1D6F8901040070D
:100CA00005D541F00400C6F89000D6F8901041F048
:100CB0000100C6F89000FFF71DFC054641F2893798
:100CC000D6F89000800709D4FFF714FC401BB84207
:100CD000F6D3D6F890008007F2D4E1E0D6F8900081
:100CE000A168090629D420F0800041F28937C6F8AE
:100CF0009000D6F89000000571D5FFF7FBFB401B74
:100D0000B842F6D300F0CEFAF3D5ACE700F086FA9D
:100D100086E620F0010000F0D1FA05463068800731
:100D20007FF57EAEFFF7E6FB401B0328F6D3306865
:100D300080074FF00300F1D595E740F0800041F2C5
:100D40008937C6F89000D6F89000000547D4FFF721
:100D5000D1FB401BB842F6D300F0A4FAF3D482E7EB
:100D600000F030FB002840F080806FE70010024068
:100D70000070004020F4803000293060306820F49A
:100D80008020306000F00581FFF7B4FB0546306835
:100D900080033FF5A2AEFFF7ADFB401B6528F6D3FD
:100DA000306880034FF00300F1D45CE720F48070DA
:100DB00000F084FA0546306840057FF5BEAEFFF7C7
:100DC00099FB401B0328F6D3306840054FF0030021
:100DD000F1D548E7D6F89000000600F1EC80B8F1B4
:100DE000000F5EBFB06D20F08050B06520788006A7
:100DF0003ED4E76A002F00F0C980B06800F00C0014
:100E00000C2850D1012F30D0216BF06800F0030284
:100E10008A422AD1616B6FF00F0202EB011100F0E0
:100E2000F0028A4221D1A16B00F4FE42B2EB012F05
:100E30001BD1E16B00F07842B2EBC16F15D1216C90
:100E40006B4A02EA015100F4C002A1F500118A4286
:100E50000BD1616C4FF07E4200F0C06002EA01618C
:100E600001F17E41884200F091800120BDE8FC81C3
:100E7000D6F89800A16AB1B340F00100C6F8980016
:100E8000FFF738FB0546D6F898008007B1D4FFF786
:100E900031FB401B0328F6D3D6F898008007F2D424
:100EA0000320BDE8FC81306820F0807000F006FA75
:100EB0000546022F0BD1306880012CD5FFF71AFBB5
:100EC000401B0328F7D300F01DFAF4D5CBE63068B9
:100ED000800157D5FFF70EFB401B0328F7D300F026
:100EE00011FAF4D5BFE620F00100C6F89800FFF72C
:100EF00001FB0546D6F8980080077FF57AAFFFF72B
:100F0000F9FA401B0328F5D3D6F8980080074FF074
:100F10000300EFD5A7E604F130036FF00F05334F60
:100F20000FCB05EB0111F5683D4028430843216CC8
:100F300040EA02202E4A02EA01514FF07E42A1F51A
:100F400000110843616C02EA016140EAC36001F1EB
:100F50007E410843F060306840F080703060F06897
:100F600040F08070F060FFF7C5FA044630688001F9
:100F70000CD4FFF7BFFA001B0328F7D300F0C2F927
:100F8000F4D470E6F06818490840F0600020BDE82D
:100F9000FC81FFF7AFFA0546306880037FF59DAD11
:100FA000FFF7A8FA401B6528F6D3306880034FF09E
:100FB0000300F1D557E6D6F8900041F2893720F0CA
:100FC0008000C6F89000D6F8900000057FF507AFC6
:100FD000FFF790FA401BB842F5D300F063F9F2D561
:100FE00041E600BF04000020FCFFEEFE0C809F01E4
:100FF0000000E0FF70477047704758B110B500F02F
:1010000099F903D100F065F900F006F800F0A0F9B5
:1010100000F02DB9012070477047000090F83D1096
:10102000012924D1022180F83D100168C868B1F17E
:10103000804F40F00100C8601CBF104881420BD0B7
:101040000F48814208D00F48814205D00E488142A6
:101050001CBF0E4881420CD188680E4A734600F0CE
:101060005DF99E4618BFB2F5803F05D1704701205B
:10107000704707488142EFD000F061B9000400409A
:1010800000080040000C0040002C014000400140DE
:101090000034014007000100704710B504460068A5
:1010A0000169890712D5C16889070FD56FF0020160
:1010B0000161012121778069800702D000F045F9A4
:1010C00001E000F015F90020207720680169490748
:1010D00013D5C168490710D56FF0040101610221E1
:1010E0002177806910F4407F02D000F02EF901E0F2
:1010F00000F0FEF80020207720680169090712D56A
:10110000C16809070FD56FF008010161042121773B
:10111000C069800702D000F018F901E000F0E8F89B
:101120000020207720680169C90613D5C168C90667
:1011300010D56FF01001016108212177C06910F40A
:10114000407F02D000F001F901E000F0D1F800206A
:10115000207720680169C90709D0C168C90706D08E
:101160006FF001010161204600F03AF82068016942
:10117000090609D5C168090606D56FF0800101612D
:101180002046FFF738FF20680169C90509D5C16805
:10119000090606D56FF4807101612046FFF72AFF2A
:1011A00020680169490609D5C168490606D56FF06E
:1011B00040010161204600F01DF8206801698906A0
:1011C00002D5C168890600D410BD6FF0200101610D
:1011D0002046BDE81040FFF70FBF70477047000082
:1011E00000680349884208BFFFF79EB9704700BFF7
:1011F000001000407047FA2000F06CFA0020FFF762
:101200008DF84FF4FA7000F065FAF7E70020FFF769
:1012100093F84FF4FA7000F05DFAF7E7306840F0A9
:1012200008003060D4E90801326822F0F00211436E
:101230003160716821F47F4141EA0020706070479D
:10124000016841F4804101607047086000207047E8
:10125000204600F0BFBD251D284600F0ACBE00238F
:10126000CDF800A001F026BC6FF00500704701200A
:1012700084F8480084F83E0084F83F0084F8400079
:1012800084F8410084F8420084F8430084F8440064
:1012900084F8450084F8460084F8470084F83D004F
:1012A000002010BDD6F8900000054FF003007047F5
:1012B000044600F0E1BE044600F0DEBE3060FFF7F9
:1012C00019B9204600F050BC01EB8000294600F01F
:1012D000C7BE002084F83C0020467047606839682B
:1012E00001F00C01B1EB800F7047404600F0C2BF27
:1012F0004DF808ED2046FFF770FF20465DF808EB3B
:10130000FFF76CBF306880014FF00300704794F81E
:101310004500FF287047204600F04DBE02400020E7
:10132000062A704794F84400FF2870473168C96A5C
:1013300088427047044690F83D00002870470868CE
:1013400040F001000860002070472046FFF7A4BE6F
:101350000220211D84F83D00206800F021B9000022
:10136000EFF309801EF0100F08BF20ED108AEFF395
:101370000B82734620E9FC0F114A116808604FF098
:10138000A00080F31188BFF34F8FBFF36F8F00F081
:10139000D3FF4FF0000080F31188094A11680868F4
:1013A000B0E8FC0F13F0100F08BFB0EC108A82F306
:1013B0000B8880F30988184700BF00BF00BF00BF3B
:1013C00018000020BCB51F4D04462868C0000FD48B
:1013D000286840F080502860286800F08050019014
:1013E0000198FFF791F9296821F08051296001E007
:1013F000FFF78AF940F40070B0F5007F06D1812C28
:1014000008D30120A02C88BF02200DE0802C03D936
:10141000032009E0002007E0A4F17000B0FA80F09A
:101420004009802C08BF022007490A6822F00F02F9
:1014300002440A60096801F00F01081A18BF012070
:10144000BCBD00BF58100240002002400000000058
:101450001EF0040F0CBFEFF30880EFF3098004497E
:10146000084700BF00BF00BF00BF00BF00BF00BFF4
:101470001121000880B50548006801F0D5F9012860
:1014800008BF80BDBDE8804000F09CBF10E000E0D8
:1014900010B598B006A828210430FEF7E2FE00201F
:1014A0000024FFF7FDF800B1FEE7072102201591A7
:1014B0003721CDE9160014910121CDE911016020F9
:1014C0001391CDE90D140F901020069006A8FFF798
:1014D00099FA00B1FEE7002005210590CDE903004F
:1014E000032002900F20019001A8FFF715F900B129
:1014F000FEE718B010BD00001D480422016811F07D
:101500000801014608BF9431096808BF0822D1408C
:10151000184A01F00F0152F821108268C2F38102CB
:10152000DFE802F01B020204134916E0C2689207CA
:10153000114A58BF0A46C1680223C1F303110131A1
:10154000B2FBF1F1C268C2F306225143C268C2F392
:10155000416203EB4202B1FBF2F1084A084B116011
:101560008068C0F30310185C21FA00F01060704727
:1015700000100240942B00080024F4000800002012
:101580001E2B00080248016841F470010160704799
:1015900088ED00E00148FFF780BD00BF1801002082
:1015A00070B52A4A0368904228D0B0F1804F08D025
:1015B000274CA04205D0274CA0421CBF264CA0427D
:1015C00040D123F070034C682343B0F1804F19D011
:1015D0001F4CA0421CBF1F4CA04213D01F4CA04266
:1015E00010D01D4CA0420DD01D4CA0421CBF1D4C64
:1015F000A04207D01C4CA04204D007E023F07003A7
:101600004C682343CC6823F4407323434E6923F092
:1016100080030C688D68334390420360C562846226
:101620000BD0124A02444FEAB222052A07D80123FE
:1016300003FA02F212F0390F01D0096901630121A6
:10164000416170BD054CA042BBD0BEE7002C0140FB
:10165000000400400008004000340140000C00403D
:1016600000400140004801400044014000CCFEBF62
:10167000FEF766FFFFF70CFF0020FEF715FE0220C5
:10168000FEF712FE0020FEF739FF00B1FEE7FEF77D
:1016900041FF00B1FEE700F02BF80220FEF74CFE00
:1016A0000748084A002100F04FF8074C084A00217B
:1016B0002060064800F048F8606000F029F8FEE776
:1016C0000D1200085C2B000810000020F711000824
:1016D000382B0008EFF3058109B1FFF7C5BD20B134
:1016E00080B500F0A7FD002080BD002070470000FD
:1016F000EFF3058008B1FFF7B7BD1148016811B1DC
:101700004FF0FF307047012101600020704700BF9B
:1017100010B5EFF3058010B16FF005040DE0084837
:101720000168012907D1074900240C7002210160DA
:1017300000F0C8FD01E04FF0FF34204610BD00BFAF
:10174000140100201FED00E02DE9FF4100240B46AD
:101750000394EFF30581A0B399BB22B39669002EE1
:1017600008BF1826382E2CD81179C90729D15569F8
:10177000D2E902E811684FEA950C002D674608BFD0
:101780004FF40077BEF1000F1FD0B8F15C0F18D3F3
:101790001269B2B1ADB1CDE900626246CDF808E0A0
:1017A00001F01CF80EE018264FF40077002103AA80
:1017B000CDE90062BAB200F0E5FF0399012808BF45
:1017C0000C46204604B0BDE8F081B8F1000F04BF1C
:1017D0001269002AF5D1EAE7F8B5F04C05460E4645
:1017E000A7692068043000F0E6FB681C08D13EB110
:1017F00054F8500B011D2046BDE8F84000F030BC05
:10180000ED192068456006D3206A21680431BDE8DF
:10181000F84000F00EBCE0692168043100F009FCDA
:10182000E06A854238BFE562F8BD00BF2DE9F041AE
:10183000FFF741FDD94FF8680130F860386840B1D2
:10184000386948BBE06A3968C96A814298BF3C6020
:1018500022E03C60F86801281ED1774E0025B5F5DE
:101860008C6F04D0701900F0D6FB1435F7E7DFF861
:1018700068801A4D4046A84708F114063046A8472C
:1018800007F16400A84707F13C00A84707F15000A2
:10189000A847C7F81C803E627868796A01306064A6
:1018A0007860E06A884288BF786200EB8000624915
:1018B00001EB8000211D00F0D3FB00F0E9FB38694B
:1018C00040B1E06A3968C96A814203D2BDE8F0419B
:1018D00000F04CBCBDE8F081EC00002017200008AF
:1018E0007CB500F0C9FB104E3068C0B906F1140495
:1018F000204600F090FB06F12805284600F08BFBFF
:1019000000200A4A0A4BC6E90245102100900A202D
:1019100000F06AFD306010B106A100F031FCBDE8B6
:101920007C4000F0B5BB00BF9000002064010020A7
:1019300004020020546D725100000000026C72B16C
:1019400010B5D0E902431344C360A342BDE8104080
:1019500024BF0368C36008461946FEF769BC704798
:1019600070B51546866B026C0446CAB105B3E068D3
:10197000FEF75EFCE268206C2168121AE2608A427F
:101980003FBF4042A1680844E060002E304618BFC7
:101990000120A91EB1FA81F149090840361A13E065
:1019A0002068002580B9A06800F0AEFFA5600CE0BB
:1019B0006068FEF73DFCD4E90101226C10446060D0
:1019C000884224BF206860600020711CA16370BD44
:1019D00010B5044690F85900022808BF10BD012830
:1019E00003D038B9206B00F065FB2046BDE81040FD
:1019F00000F060BB00F0D4FAFEE70000674D0E4E29
:101A0000A86890B100F038FBA86CC468201D00F0F5
:101A1000D2FAE8680138E860A8680138A86000F0E8
:101A200037FB2046FFF7D4FFEAE730680228E7D308
:101A300000F09CFBE4E700BF54020020B0B5049D19
:101A400000291C46C5E90F0108BF2A462846012186
:101A50002A6000F0EFFC85F84C40B0BD2DE9F0475E
:101A60000A9C0F46824616469100A5229846206B96
:101A7000FEF7F0FB206BDDE90859002100EB860042
:101A8000043820F0070604F1340057B1102904D0BF
:101A90007A5C42540131002AF8D1002084F84300D6
:101AA00000E001700027372D28BF3725C4E9135700
:101AB000E562201D00F0BAFA04F1180000F0B6FA51
:101AC000C5F13800676552464346A06184F85870F6
:101AD000304664622461216B00F02CFA2060B9F179
:101AE000000F18BFC9F80040BDE8F08770B50F4B74
:101AF00003F11802114612688242FBD34D68446814
:101B00004E19864202BF2C444C6008460519954286
:101B100006D15B689A421EBFD2E90023234443608A
:101B20000260814218BF086070BD00BFCC00002079
:101B300010B50C460146006141F8044F944206D9A5
:101B4000A34808309A4208D29C4206D30AE0D21A2F
:101B50008069824206D29E480C30006800F069FA23
:101B6000002010BD012010BD10B5FFF7A1FBA06B38
:101B7000B0FA80F0440900F08BFA204610BD000056
:101B80000648C169096821B1C169C968C96849685D
:101B900001E04FF0FF31C162704700BF1800002024
:101BA0002DE9FC47804600F04BFE894D81464FF001
:101BB000000A286981452AD2A868016811B3C06863
:101BC000C6680768341D204600F0F5F9316A3046D2
:101BD000884796F828004007EED5B0693844B842E7
:101BE00006D97060A8682146366100F022FAE3E762
:101BF000304600213A46FFF732FB0028DCD100F0E6
:101C0000CFF9FEE7E9684FF0010AC5E9021048463E
:101C1000C5F81090C8F800A0BDE8FC871CB50020EE
:101C200001900548046800F0BBF9601C00D0FEE795
:101C300001980028FCD01CBD0C00002086B0644F29
:101C400002AC4FF0000A01ADB86806681EB1C0686A
:101C5000D0F8009001E04FF0000900F067FB20464B
:101C6000FFF79EFF8346029810B100F0A3FE9CE0B0
:101C70001EB1D94513D9002204E0F8680068B0FA13
:101C800080F04209A9EB0B01386800F089FA00F0F6
:101C900091FE002840F0898000F068FA85E000F0AD
:101CA00089FEB868C068D0F80C8008F1040000F024
:101CB00082F998F82800410704D400F0FA0088F867
:101CC000280011E0D8F818005A464B4600EB0901ED
:101CD0004046FFF72DFF38B1404600214A46FFF746
:101CE000BEFA002800F07080D8F8201040468847DF
:101CF0005BE00298B0F1FF3F06DCDDE903200599C7
:101D000090470298002850D4049E706910B1301D8D
:101D100000F051F92846FFF743FF024602980928D0
:101D200043D8DFE800F005050534253B05053425DB
:101D300096F82800039B40F0010086F82800B0695F
:101D4000C1183046FFF7F4FE78B3316A3046884751
:101D500096F82800400728D5B06903990023CDF8EC
:101D600000A042183046002100F0A4FEE8B928E0A7
:101D700096F828100398B06141F0010186F8281008
:101D8000E0B1811830461346FFF7D2FE0DE096F819
:101D9000280000F0FE0086F8280006E096F82800EB
:101DA0008107F6D4304600F085F9386821460022D4
:101DB00000F042FC00287FF49CAF45E700F0F0F80B
:101DC000FEE700F0EDF8FEE700F0EAF8FEE700BFFE
:101DD0009000002070B5FFF76BFA94F8456004F1AD
:101DE000240570B2012809DB286838B1284600F0C4
:101DF000B7FD08B100F03AFA013EF2E7FF2084F89F
:101E0000450000F045F900F037F994F8446004F11A
:101E1000100570B2012809DB286838B1284600F0A7
:101E20009FFD08B100F022FA013EF2E7FF2084F89E
:101E30004400BDE8704000F02BB90000F8B504463E
:101E400000F074FAB14D686828B12978002918BFEC
:101E50004FF000411EE0364900204A070B4601F1D1
:101E6000070218BF22F00703C5E9063041F6B87231
:101E7000114421F00701A1F108026A6041E9020062
:101E8000D11A68685960C5E90211012118602970EA
:101E90004FF00041214209D0002400F08BFD600783
:101EA00004BF2046F8BD00F07BF8FEE7002CF3D01D
:101EB000610724F0070101F1100108BF04F10801D6
:101EC0000029E9D0AB689942E6D82E4656F8184F5B
:101ED0006268374626468A4202D23468002CF7D11F
:101EE0008642D9D030683C683860571A112F0BD31E
:101EF0007018420702D000F053F8FEE747607160A7
:101F0000FFF7F4FDAB6872680834981AE968A860B6
:101F1000884238BFE8602878002818BF42F00042A5
:101F20000020C6E90002286901302861B5E700BF3A
:101F3000B4060020F0B540F8481D4FF08071DFF87E
:101F40005CC04FF012344FF003354FF002364FF0C3
:101F5000013741644FF0113100F1240EC0E90C65E6
:101F6000C0E90E4C02644FF0103C4FF009324FF0C4
:101F700007344FF006354FF00536AEE88A004FF0D3
:101F800008334FF004376FF04301C0E90365C0E93F
:101F9000072CC0E90117C0E90543F0BD1D1C00086E
:101FA000EFF311804FF0A00181F31188BFF34F8F41
:101FB000BFF36F8F7047D0E9013201699A605360B7
:101FC0004B68834208BF4A600A68013A0A600022EF
:101FD0000261086870470000034B03604FF4007013
:101FE0001060024808607047702E002070260020A4
:101FF000034B03604FF48060106002480860704734
:10200000CC3E0020CC2E002080F31188BFF34F8FF0
:10201000BFF36F8F70470021024601604FF0FF3120
:1020200042F8081FC0E903224260704700210161A5
:102030007047B0B50C68621C07D000F10802134667
:1020400052681568A542FAD901E003695A6891609F
:10205000C1E9012308615960016801310160B0BD27
:1020600010B50268436808619C6801324B608C605F
:1020700061600260996010BD80B5FFF791FFD048A4
:10208000016801310160BFF34F8FBFF36F8F80BDD7
:10209000CB48016829B1016801390160006830B19D
:1020A000704780B5FFF77CFFBDE88040FEE7002069
:1020B000FFF7AABF70B588B1144E044650F8040C5F
:1020C0003178002918BF4FF00041014207D0A4F138
:1020D00008052A6832B1FFF763FFFEE770BDFFF71E
:1020E0005FFFFEE7884344F8040C00F01FF954F842
:1020F000040CB1680844B0602846FFF7F7FC70692B
:1021000001307061BDE8704000F054BCCC0000208C
:10211000806910F8020C02280CD10948016841F4CA
:1021200070010160D0F8AC1141F04041C0F8AC1131
:1021300000F056B880B5FFF733FFBDE88040FEE7FA
:1021400088ED00E0074800214FF47A720160816059
:1021500005490968B1FBF2F10139416007210160CD
:10216000704700BF10E000E0080000209D484FF0DD
:1021700080510160BFF34F8FBFF36F8F704700BF77
:1021800010B5064B0022402A06D09C580832002C7D
:10219000F9D11A4442E9021010BD00BF283F0020C7
:1021A00070B515460E46FFF783F8FFF7BBF804BF7E
:1021B000002084F84400FFF7AAF804BF002084F848
:1021C0004500FFF765FFA06B28B904F124003146F4
:1021D0002A4600F061F82046BDE87040FFF7FABDDE
:1021E000074A1168086806C881F30B88022181F349
:1021F0001488203080F30988BFF36F8F104700BF29
:102200001800002000000000000000000000000096
:1022100007480068006880F3088862B661B6BFF3BB
:102220004F8FBFF36F8F02DF00BF00BF00BF00BF43
:1022300008ED00E080B578B152494A6912B1FFF764
:10224000AFFEFEE74A6901324A610021FFF7C4FA96
:1022500000F0B0FB00B180BDBDE88040FFF786BF55
:1022600048498A6B0260896941607047454801218D
:102270000163704710B558B10C46424909681831DE
:10228000FFF7D7FE20460121BDE81040FFF7A4BAB2
:10229000FFF786FEFEE700BFB0B580B10D463949B5
:1022A000144609681831FFF7DBFE002C18BF4FF009
:1022B000FF3528462146BDE8B040FFF78DBAFFF74D
:1022C0006FFEFEE710B586B00024CDE9044405A8F2
:1022D00004A903AAFFF780FEDDE903200599002386
:1022E000029110A1CDE900400D4800F077FA254C8D
:1022F000A06280B100F0B2FB411C0ED001280AD1CF
:10230000FFF74EFE4FF0FF30E06201202061002019
:10231000A06100F03BF806B010BDFFF741FEFEE7FC
:10232000FD19000849444C4500000000154841696A
:1023300001314161704700BF10B51248416911B1C8
:102340000121016310BD00210F4B0163416A01EBC4
:10235000810203EB8202043252F8043C1BB971B1D2
:10236000143A0139F8E7136814465B6808C49C42C4
:1023700004BF5B681360DA680260416210BDFFF75A
:102380000FFEFEE7180000205402002080B50B4825
:10239000016841F47F010160016841F07F41016003
:1023A000FFF7D0FE064800210160FFF731FFFFF77D
:1023B000C3FFFFF733FC002080BD00BF20ED00E02D
:1023C0000C00002010B5FFF7EBFD044600F03CFACE
:1023D00018B104484FF0805101602046BDE810401C
:1023E000FFF712BE04ED00E0BCB530B11C463BB1B6
:1023F00049B942B1FFF7D4FDFEE7FFF7D1FDFEE793
:10240000FFF7CEFDFEE719B112B9FFF7C9FDFEE7F0
:1024100050230193019B502B09D1019D069B01255F
:1024200084F846500094FFF709FB2046BCBDFFF737
:10243000B7FDFEE770B508B30D46FEF739FF002083
:10244000A063FF2084F84400D4E90F23216884F8B6
:102450004500501E00FB031003FB0216E06004F170
:102460001000C4E9011665B1FFF7D5FD04F12400A1
:10247000FFF7D1FDFFF70CFE012070BDFFF790FDC7
:10248000FEE701680029F5D000F06AFA0028F1D0D3
:10249000FFF76CFEEEE72DE9FE4F029280B11D467C
:1024A00017468B46044671B1022D02D1E06B01281C
:1024B0005BD100F0B9F960B95FB1FFF771FDFEE7DC
:1024C000FFF76EFDFEE7206C0028EDD0FFF768FDFA
:1024D000FEE704F1100801266F460DF10809FFF729
:1024E000CBFDA06B022D43D0E16B884240D3029814
:1024F000002850D0F0071CBF3846FFF7B1FEFFF7A9
:10250000C7FDFFF713FFFFF7B7FDFEF70BFF04BF93
:10251000002084F84400FEF7FAFE04BF002084F88F
:102520004500FFF7B5FD3846494600F001F9A8BB64
:10253000FFF7A2FDA66BD4F83CA0FFF7A9FD564516
:102540000DD10299FEF7D1FEFEF782FE00F032FABD
:1025500000260028C3D1FFF709FE0026BFE7FEF7DB
:1025600077FE00F027FA0026B9E7FFF719FDFEE72E
:10257000204659462A46FFF7F3F954F8241F11B1B3
:10258000204600F0EDF908B1FFF7F0FDFFF780FD00
:102590000120BDE8FE8FFFF77BFD03E0FEF758FE4C
:1025A00000F008FA0020BDE8FE8F2DE9F843A0B145
:1025B0001F4691460D46064691B1022F02D1F06B9F
:1025C00001282CD1FFF7ECFC8046B06B022F0DD018
:1025D000F16B88420AD3002528E0FFF7E1FCFEE713
:1025E000306C0028E9D0FFF7DBFCFEE796F84540A9
:1025F000B06B29463A463046FFF7B2F9FF2C11D1AD
:1026000056F8240F88B1304600F0AAF90125B9F137
:10261000000F18BF002809D0C9F8005006E0FFF7E6
:10262000BFFCFEE7601C86F8450001254046FFF729
:10263000EBFC2846BDE8F8832DE9FE4F029258B125
:10264000154689460446002955D000F0EDF830B90A
:102650002DB1FFF7A5FCFEE7FFF7A2FCFEE704F1B2
:10266000240801256F464FF0000A0DF1080BFFF713
:1026700003FDA66B002E44D10298002852D0E80733
:102680001CBF3846FFF7ECFDFFF702FDFFF74EFEDB
:10269000FFF7F2FCFEF746FE08BF84F844A0FEF701
:1026A00036FE08BF84F845A0FFF7F2FC38465946CD
:1026B00000F03EF848B1FEF7CBFD00F07BF9FEF7E5
:1026C00000FE00250028D2D02FE0FEF7FAFD60B111
:1026D0000299FEF70AFEFEF7BBFD00F06BF900253C
:1026E0000028C4D1FFF742FD03E0FEF7B1FD00F082
:1026F00061F90025BBE7206C0028A6D0FFF750FC4D
:10270000FEE720464946FFF719F9701EA06354F80A
:10271000100F28B1204600F023F908B1FFF726FD7D
:10272000012500E00025FFF7B3FC2846BDE8FE8F39
:10273000F8B5D0B10D46D9B1FEF7BDFDC5488269E7
:1027400029684B1C0FD0D4E90063876BB74201D0D6
:102750009A4212D2D21A91420DD9891A2960816BFC
:10276000216080696060002408E0FFF719FCFEE743
:10277000FFF716FCFEE7002028600124FFF788FC25
:102780002046F8BD2DE9FE430746900098461546C1
:102790008946FFF753FBE8B106465C20FFF74EFB86
:1027A000A8B10446DDE90A100022434684F8592006
:1027B00026632A460294CDE9001038464946FFF7C1
:1027C0004DF92046FFF732F80120BDE8FE83304680
:1027D000FFF770FC4FF0FF30BDE8FE83F0B585B029
:1027E0000B9DC5B10C9CCCB15C260396039E5C2E60
:1027F00017D1039F0A9E2563022784F8597004AD00
:102800000294CDE90065FFF729F92046FFF70EF89D
:10281000049805B0F0BDFFF7C3FBFEE7FFF7C0FB70
:10282000FEE7FFF7BDFBFEE78A48016929B1406971
:10283000B0FA80F04009400070470120704700BFA7
:1028400084488069704700BF2DE9F843814E706964
:1028500020B1706B00240130706351E0B06910F159
:102860000109C6F818900ED3F069006810B1FFF79F
:1028700097FBFEE7F069316AF1613062B06B0130BD
:10288000B063FFF77DF9F06A002481452AD3DFF8B1
:10289000C881F069006810B3F069C068C7683D4638
:1028A00055F8040F81451CD32846FFF784FBB86A0E
:1028B00018B107F11800FFF77EFBF86A716A8842C9
:1028C00088BF706200EB8000294608EB8000FFF7AC
:1028D000C7FBF86AFEF72AFD28BF0124D9E74FF0AD
:1028E000FF30F06230685C49C06A00EB800051F84C
:1028F0002000012888BF0124306B002818BF012464
:102900002046BDE8F88300BF70B538B1514E04468B
:102910003068A04204D0FFF743FBFEE7002070BD03
:10292000206DD0B1013820654FF0000014D1E16A6C
:10293000E26C914210D0FEF78EFCE06CC0F13801E1
:10294000E062A161716A884288BF706200EB80001A
:102950004149FEF7B9FC012070BDFFF721FBFEE7FE
:1029600070B5C068C5684DB105F11804FEF7D3FC19
:10297000384E706928B106F164000FE0FFF710FBD4
:10298000FEE72C1DFEF7C7FCE86A716A884288BF23
:10299000706200EB8000304901EB80002146FFF7B8
:1029A0005FFBE86AFEF7C2FC92BF002001203063A3
:1029B00070BD00BF2DE9F041264D686960B1FFF799
:1029C0005BFB686901386861686940B10024FFF702
:1029D0005FFB2046BDE8F081FFF7E2FAFEE7E8681A
:1029E0000028F3D01C4F00264FF00108686EE0B1BC
:1029F000286FC66806F11800FFF7DDFA341DFEF7F0
:102A00008AFCF06A696A884288BF686200EB8000CD
:102A1000214607EB8000FFF723FBF06A2968C96AAB
:102A2000884228BFC5F83080E0E70EB1FFF7A8F86C
:102A30006C6B44B10126FFF707FF00B12E63013C28
:102A4000F9D100206863286B0028BFD0FFF78EFB08
:102A50000124BCE7180000205402002010B586B005
:102A6000FEF73EFF0F4C2068C0B10020CDE9040006
:102A700005A804A903AAFFF7BBFADDE90320022396
:102A80000599029109A1CDE9003007480023FFF71D
:102A9000A5FE606010B1012006B010BDFFF780FAFE
:102AA000FEE700BF900000203D1C0008546D72201E
:102AB00053766300BFB5A8B1104D04462868A0B195
:102AC00005298DE8160012DCFFF7AEFE01462868E6
:102AD000022919BF69460022089A69460023FFF7B8
:102AE000DAFC09E0FFF75CFAFEE7002004E01A4692
:102AF00069460023FFF759FD04B0B0BD90000020E7
:102B000002E008C8121F08C1002AFAD170477047B6
:102B1000002001E001C1121F002AFBD17047000014
:102B2000000000000000010203040607080900007D
:102B30000000010203040000D42B00080000000084
:102B40000000000000000000000000000002000083
:102B5000180000000000000000000000E02B00084A
:102B60000000000000000000000000000000000065
:102B7000000200001800000000000000000000003B
:102B800080008000000200000008024200040242AF
:102B900000000242A0860100400D0300801A0600DA
:102BA00000350C0040420F0080841E0000093D00EB
:102BB00000127A000024F40000366E010048E8019B
:102BC000006CDC02000000000000000000000000BB
:102BD00000000000477265656E4C65644F666600D4
:102BE000477265656E4C65644F6E0000102C0008DE
:102BF0000000002010000000002B0008202C00081E
:102C00001000002058470000102B000800000000B2
:102C1000010000000800000000093D00AAAAAAAABD
:04000005080001F5F9
:00000001FF
